:100421005050F0007050D002FF4200000000000068
:1004310000000000000000000000000000000000BB
:1004410000000000000000000000000000000000AB
:10045100000000000000000000000000000000009B
:10046100000000000000000000000000000000008B
:10047100000000000000000000000000000000007B
:10048100000000000000000000000000000000006B
:10049100000000000000000000000000000000005B
:1004A100A1A1E100E1A1A100FF08000000000000FE
:1004B100000000000000000000000000000000003B
:1004C100000000000000000000000000000000002B
:1004D100000000000000000000000000000000001B
:1004E100000000000000000000000000000000000B
:1004F10000000000000000000000000000000000FB
:1005010000000000000000000000000000000000EA
:1005110000000000000000000000000000000000DA
:100521000302020002020300FF210000000000009C
:1005310000000000000000000000000000000000BA
:1005410000000000000000000000000000000000AA
:10055100000000000000000000000000000000009A
:10056100000000000000000000000000000000008A
:10057100000000000000000000000000000000007A
:10058100000000000000000000000000000000006A
:10059100000000000000000000000000000000005A
:1005A10000001F0017151D00FF840000000000005F
:1005B100000000000000000000000000000000003A
:1005C100000000000000000000000000000000002A
:1005D100000000000000000000000000000000001A
:1005E100000000000000000000000000000000000A
:1005F10000000000000000000000000000000000FA
:1006010000000000000000000000000000000000E9
:1006110000000000000000000000000000000000D9
:10062100000000005C547400FF1000000000000096
:1006310000000000000000000000000000000000B9
:1006410000000000000000000000000000000000A9
:100651000000000000000000000000000000000099
:100661000000000000000000000000000000000089
:100671000000000000000000000000000000000079
:100681000000000000000000000000000000000069
:100691000000000000000000000000000000000059
:1006A1000000000000000000FB8AFA0202020202C0
:1006B1000202FB0202020202020202EAABBA0202D7
:1006C1000202020202AAABFA020202020202023A88
:1006D10023FA02020202020202BAABEA0202020297
:1006E100020202FAABEA020202020202020A0BFA57
:1006F10002020202020202FAABFA02020202020240
:1007010002BAABFA020202020202FA02FB8AFA02FE
:100711000202020202FA0302FA02020202070200C4
:10072100000040404040FF20202020200000000029
:1007310000201008040300010204081030202000EA
:10074100002044080010E82FE8A494F48080800081
:1007510000180601010D0B092B48380F080800008D
:100761000020A0FE9000B054BB2A2E98000000008B
:100771000403003F00150A25433E03040C0808004A
:10078100404040FE2000508878802020FE1010005C
:100791000402013F09040201020401207F0000005C
:1007A10000080808884878444444C404040400004C
:1007B100000000001F0A0A0909083F0000000000AC
:1007C100000000F80828F8A9A67C14140000000015
:1007D100201806212022160A091730202020200087
:1007E100002018088868090A082444041408000035
:1007F100002020212022221E111111103020000082
:100801000000F80204E0A414F4020202FE00000059
:1008110000001F0000070202070010201F00000057
:100C5C00E4F580C2A2D2A1D2A0E58020E7FBC2A01D
:010C6C002265
:100C6D00120C5CC2A2C2A18F80D2A00000C2A02231
:0E0BE200FA7E00E9250CF9EE3AFA1203ADFF97
:100BF000120C5CD2A2C2A18F80D2A00000C2A0229F
:100BC200120C5C7580FFD2A2D2A1D2A00000C2A0FA
:0F0BD2007580FFD2A2D2A1D2A0AF800000C2A036
:010BE10022F1
:060C89004307B8020C6DE8
:060C8F004307C0020C6DDA
:0D0C3400120C00E50D2402FF120C89E4FFF4
:090C410053073F430740020C6D0C
:060C950043073E020C6D56
:100C0000EF14600C14600E2402700EC2A4C2A32262
:0A0C1000C2A4D2A322D2A4C2A322E0
:100C1A00120C00E4FEAF06120C3CE4FDE4FF120BDA
:090C2A00F00DBD40F70EBE08EC10
:010C3300229E
:100C4A007F01120C95E4FF120C00120C1AE4FF0249
:020C5A000C8FFD
:020A8300AE07BC
:100A8500ED131313541FFC33333354F8FFC3ED9F99
:100A9500FDEED3943F400B7F02120C0074C02EFE76
:100AA50080057F01120C00AF04120C89AF06120CF1
:100AB50041120BC2AA07EB24FE601714602324021F
:100AC500702E7401A805088002C333D8FCF45202C5
:100AD500801E7401A805088002C333D8FC62028019
:100AE5000FAF057401A807088002C333D8FC420282
:0F0AF500AF04120C89AF06120C41AF02020BF0D6
:020B6D00AC03D7
:100B6F00120C00AF05120C89ECC454F0FF120C41AB
:100B7F00E4FEAB0CAA0DA90E8E827583001203C67C
:100B8F00FF120BF00EBE10EAED04FF120C89ECC43D
:100B9F0054F0FF120C41E4FEEE2410F582E433F51D
:100BAF0083AB0CAA0DA90E1203C6FF120BF00EBEDB
:020BBF0010E63E
:010BC1002211
:060B04008B098A0A890B2F
:100B0A00E4F50D7F01120C34E4F50CE50D75F08067
:100B1A00A4AB09250BF9E50A35F0120BE2050CE541
:100B2A000CC3944040E57F02120C34E4F50CE50D49
:100B3A0075F002A42401FFE435F0FEEF7806C33312
:100B4A00CE33CED8F9AB09250BF9E50A3E120BE2F2
:100B5A00050CE50CC3944040D5050DE50DC394067C
:020B6A0040A1A8
:010B6C002266
:10098F00120C4AE4FF120C1AE4FF120C8F750CFFC5
:10099F00750D07750E21E4FBFD7F01120B6D750CB4
:1009AF00FF750D07750E417B017F01120B6D750CE5
:1009BF00FF750D07750E617B027F01120B6D750CB4
:1009CF00FF750D07750E817B037F01120B6D750C83
:1009DF00FF750D07750EA1E4FB7F02120B6D750CF1
:1009EF00FF750D07750EC17B017F02120B6D750C24
:1009FF00FF750D07750EE17B027F02120B6D750CF3
:100A0F00FF750D08750E017B037F02120B6D7BFFC7
:100A1F007A047921120B0475080CE50824F4FDE41F
:100A2F0034FFFCE41202A67BC37AF57948784012B2
:100A3F0000FBE4FBFA7980784112020412087FE48C
:100A4F00FBFA799078411200FBA804A905AA06AB1E
:100A5F0007E4FFFE7D0C7C421200061202DFA9079D
:100A6F00AD017B02AF08120A830508E508C3948025
:040A7F0040A880FE0D
:1000030002034BE86480F8E933E83360110460F0DD
:10001300ED33EC337009E8FCE9FDEAFEEBFF220463
:1000230060DED3EB9FEA9EE99DE8C2E78CF0C2F75E
:1000330095F0400CE8CCF8E9CDF9EACEFAEBCFFB2A
:1000430012031685D0F05804700320D5B3E804706A
:10005300075002B2D502035592D5EC0460F7E4CC05
:10006300C0E0C398F8603B94186008400DD0E0FBF3
:1000730002032DE4FBFAC9FC8028E830E406E4C956
:10008300FBE4CAFCE830E305E4C9CACBFCE8540747
:100093006010F8C3E913F9EA13FAEB13FBEC13FC52
:1000A300D8F130F52FC3E49CFCEF9BFFEE9AFEEDF5
:1000B30099FDD0E0FBEF4E4D4C701222DB0302039F
:1000C30052EC2CFCEF33FFEE33FEED33FDED30E766
:1000D300EB02032DEF2BFFEE3AFEED39FDD0E0FBF3
:1000E30050130BBB0003020355ED13FDEE13FEEF9C
:0800F30013FFEC13FC02032DC6
:1000FB00EC4D6011E8497017ED33EC3304600DE4FF
:10010B00FCFFFEFD22E933E8330470F802034B12C7
:10011B00031658046009E4CC2481500628500902C8
:10012B000355284003020352C0E0EB4A7044B980E8
:10013B0006D0E0FB020341EF4E701CBD8008EBFFC5
:10014B00EAFEE9FD80EBE98DF0A4FEE5F00201E4A7
:10015B00E9CDF9EAFEEBFFEF89F0A4FCE5F0CE89DF
:10016B00F0A42EFFE435F0CD89F0A42DFEE435F09C
:10017B008067EF4E7005BD80D780C3EF8BF0A4ACCA
:10018B00F0EE8BF0A42CFCE435F0F8EF8AF0A42C05
:10019B00E5F038FCE433CB8DF0A42CFCE5F03BF818
:1001AB00EE8AF0A42CFCE5F038F8E433CF89F0A408
:1001BB002CFCE5F038CF3400CE89F0A42FFFE5F00E
:1001CB003EFEE433C98DF0A42EFEE5F039CD8AF066
:1001DB00A42FFFE5F03EFEE43DFD33D0E0FB5007DE
:1001EB000BBB000F020355EC2CFCEF33FFEE33FE81
:0601FB00ED33FD02032DAF
:10020100020355EC5D046005E85904700302034BD9
:10021100120316580460F6EC4860F2EC7004FDFE1F
:10022100FF22C860DB2481C85009C39860025006D0
:100231000203529850CAF582E9294B4A7005AB82F4
:1002410002034175F0007C1A7880C3EF9BEE9AEDB2
:1002510099400DC3EF9BFFEE9AFEED99FDE842F048
:10026100DC23ACF0D0E0FFD0E0FED0E0FDAB82209B
:10027100E7101BEB60BAEC2CFCEF33FFEE33FEED25
:1002810033FD02032DE803F830E705C0F075F000F7
:10029100EF2FFFEE33FEED33FD40B830E7C280AA09
:1002A10075F020800E75F010800575F0087D007ED8
:1002B100007F003392D530D5031203F3EC334010A5
:1002C100EF33FFEE33FEED33FDEC33FCD5F0ED22E1
:0E02D100E5F0247EA2D513CC92E7CDCEFF221D
:1002DF00EDD2E7CD33EC3392D524814006E4FFFE17
:1002EF00FDFC22FCE4CFCECDCC24E0501174FF8076
:1002FF00EDC3CC13CCCD13CDCE13CECF13CF047013
:07030F00F030D5DE0203F31C
:100821003A70FA83BCAAE9E43E81E0F8BF9DE9E6AB
:100831003F80000039283C1ABB9969663DA335E326
:10084100BF255DE73FC90FDB418DDBCCC44936EEE7
:1008510045C9913FC5B0F83D3F800000C317F5344D
:10086100452FFA73C60AFDDD12091004A2E19200B8
:100871001420E015900821740412036080261209E7
:100881001030E102B20020E0EB8C098D0A8E0B8F53
:100891000C9008357404120360A809A90AAA0BABCD
:1008A1000C1200FBED4C6007300004EC6480FC226C
:1008B100120910C0E08C098D0A8E0B8F0C9008591B
:1008C1007403120360A809A90AAA0BAB0C1200FB5E
:1008D100ECC509FCEDC50AFDEEC50BFEEFC50CFF2D
:1008E1009008497403120360D082A809A90AAA0BCF
:1008F100AB0CE58230E007120204B20080A6EFCB18
:10090100FFEECAFEEDC9FDECC8FC1202048095EDB4
:1009110033EC547FCC33920024605007D0E0D0E018
:1009210002034B7B837AF97922783E1200FBEDF9C1
:1009310033ECF83324815011EFFBEEFA1202DF128F
:1009410002A1ECB2E7FC12000AED33EC33602F2474
:1009510003F8C313FCED92E7FDE82481E4501FEC9A
:10096100F8EDF9EEFAEFFB1202DFEF04C2E0FCF55D
:10097100821202ABECB2E7FC12000AE58203FAED47
:0E09810033EC3360071413FCED92E7FDEA221D
:10031600E9D2E7C933E833F892D5EDD2E7CD33EC2D
:0703260033FC5002B2D522A6
:10032D00EC30E7100FBF000C0EBE00080DBD000431
:10033D000BEB6014A2D5EB13FCED92E7FD2274FFDD
:10034D00FCFDFEFF22E480F8A2D574FF13FC7D8036
:03035D00E480EF4A
:10036000C0E0EFFBEEFAEDF9ECF81200FBD0E0F59F
:10037000F0EFFBEEFAEDF9ECF8120401A3A3A3A34E
:10038000E8C0E0E9C0E0EAC0E0EBC0E0C0F0120085
:10039000FB120411A3A3A3A312000AD0F0D0E0FB28
:0D03A000D0E0FAD0E0F9D0E0F8D5F0D4229A
:03000000020C7D72
:0C0C7D00787FE4F6D8FD75812002098F15
:1003AD00BB010689828A83E0225002E722BBFE024E
:0903BD00E32289828A83E4932281
:1003C600BB010CE58229F582E5833AF583E02250EC
:1003D60006E92582F8E622BBFE06E92582F8E22236
:0D03E600E58229F582E5833AF583E4932250
:0E03F300C3E49FFFE49EFEE49DFDE49CFC221B
:10040100E493FC740193FD740293FE740393FF2241
:10041100E493F8740193F9740293FA740393FB2241
:00000001FF
