:03000000020800F3
:0C080000787FE4F6D8FD75810A020847F5
:09095800010805010900010A0073
:10092800E5097006C2A0D2A18004D2A0C2A1E5A8A0
:0D093800B48A05D2A2C2A322C2A2D2A32279
:10088C0020920B20920512092880F86309FF20960C
:10089C000B20960512092880F875A88A20930A2047
:1008AC00930512092880F8050AE50AC3940540034C
:1008BC00750A0520940A20940512092880F8150A57
:1008CC00E50AC394015003750A0120950E20950585
:0C08DC0012092880F8C2AFC290C291221D
:10094500758901758CB1758AE0D28C120928120857
:030955008C80F89B
:03000B000208E800
:1008E800C0E0C0D0758CEC758AE01508E509701376
:1008F800E508C3950A5006D290C2918002C290C200
:10090800918011E508C3950A5006C290D2918002E1
:10091800C291C290E5087003750805D0D0D0E032C6
:10080C00020945E493A3F8E493A34003F68001F2B4
:10081C0008DFF48029E493A3F85407240CC8C333ED
:10082C00C4540F4420C8834004F456800146F6DFBC
:10083C00E4800B0102040810204080900958E47EEB
:10084C00019360BCA3FF543F30E509541FFEE493B1
:10085C00A360010ECF54C025E060A840B8E493A378
:10086C00FAE493A3F8E493A3C8C582C8CAC583CAA3
:10087C00F0A3C8C582C8CAC583CADFE9DEE780BE5B
:010961000095
:00000001FF
