:100A0A005469616E2020477569202020202020002B
:100A1A00303132333435363738396B65792D6A736C
:090A2A00206973203A202020000D
:040A9900020C00004B
:0F09B0008F807F057E001209BFD2A27F057E00D7
:1009BF00EF1FAA0670011E4A6013E4FCFDC3ED94FD
:0D09CF000BEC940050EA0DBD00010C80F00F
:0109DC0022F8
:0A0A7E00C2A1C2A01209B0C2A22258
:100A3300C2A2C2A07F38120A7E7F0C120A7E7F06F2
:0D0A4300120A7E7F01120A7E7F80020A7E69
:0A0A8800C2A1D2A01209B0C2A2223E
:10097C00E50D6464450C7004F50CF50DAE0CAF0D73
:10098C007C007D641208197E007F0ACFCDCFCECCBF
:10099C00CE1208198F0AAE0CAF0D7C007D0A12081E
:0409AC00198D0B2274
:100A50007FCE120A7EE50A900A1A93FF120A887F57
:0B0A6000CF120A7EE50B93FF020A880C
:0609DD008B0F8A10891146
:1009E300120A7EE4F513E513C395125019AB0F05F4
:1009F30011E511AA107002051014F9120800FF1274
:060A03000A88051380E0E3
:010A090022CA
:10093000120A33758906D28A758CFF758AFF75B8DD
:100940000875A886D28C7BFF7A0A790A7512107F07
:10095000801209DD7BFF7A0A79247512107FC0129C
:1009600009DD12097C120A50E50D6464450C70041F
:0C097000F50CF50D12097C120A5080EC09
:03000B00020A6B7B
:100A6B00C0E0758CFF758AFF050DE50D7002050C56
:030A7B00D0E03296
:03001300020A924C
:070A9200750C00750D003228
:030000000208A44F
:0C08A400787FE4F6D8FD7581130208EBA4
:10080000BB010689828A83E0225002E722BBFE02F6
:09081000E32289828A83E4932229
:10081900C2D5EC30E709B2D5E4C39DFDE49CFCEEFA
:1008290030E715B2D5E4C39FFFE49EFE12084FC31B
:10083900E49DFDE49CFC800312084F30D507C3E416
:060849009FFFE49EFE2269
:1008B000020930E493A3F8E493A34003F68001F225
:1008C00008DFF48029E493A3F85407240CC8C33349
:1008D000C4540F4420C8834004F456800146F6DF18
:1008E000E4800B0102040810204080900A99E47E05
:1008F000019360BCA3FF543F30E509541FFEE4930D
:10090000A360010ECF54C025E060A840B8E493A3D3
:10091000FAE493A3F8E493A3C8C582C8CAC583CAFE
:10092000F0A3C8C582C8CAC583CADFE9DEE780BEB6
:010A9D000058
:10084F00BC000BBE0029EF8DF084FFADF022E4CC8D
:10085F00F875F008EF2FFFEE33FEEC33FCEE9DEC56
:10086F00984005FCEE9DFE0FD5F0E9E4CEFD22ED9C
:10087F00F8F5F0EE8420D21CFEADF075F008EF2FE6
:10088F00FFED33FD4007985006D5F0F222C398FDD7
:05089F000FD5F0EA2274
:00000001FF
