:030000000208A44F
:0C08A400787FE4F6D8FD7581110208EBA6
:1009B00079757169616E63652020202020202020D8
:1009C00020202020202020200030313233343536C2
:1009D0003738396B65792D6A73206973203A202086
:0209E0002000F5
:040AA200021000003E
:0F09E2008F807F057E001209F1D2A27F057E0073
:1009F100EF1FAA0670011E4A6013E4FCFDC3ED94CB
:0D0A01000BEC940050EA0DBD00010C80F0DC
:010A0E0022C5
:0A0A8700C2A1C2A01209E2C2A2221D
:100A3C00C2A2C2A07F38120A877F0C120A877F06D7
:0D0A4C00120A877F01120A877F80020A8745
:0A0A9100C2A1D2A01209E2C2A22203
:10097C00E511646445107004F510F511AE10AF115B
:10098C007C007D641208197E007F0ACFCDCFCECCBF
:10099C00CE1208198F0EAE10AF117C007D0A120812
:0409AC00198D0F2270
:100A59007FCE120A87E50E9009C993FF120A917F8A
:0B0A6900CF120A87E50F93FF020A91ED
:060A0F008B098A0A890B25
:100A1500120A87E4F50DE50DC3950C5019AB0905D0
:100A25000BE50BAA0A7002050A14F9120800FF1259
:060A35000A91050D80E0AE
:010A3B002298
:10093000120A3C758906D28A758CFF758AFF75B8D4
:100940000875A886D28C7BFF7A0979B0750C107F68
:1009500080120A0F7BFF7A0979D3750C107FC012C1
:100960000A0F12097C120A59E511646445107004DB
:0C097000F510F51112097C120A5980ECF8
:03000B00020A7472
:100A7400C0E0758CFF758AFF0511E5117002051041
:030A8400D0E0328D
:03001300020A9B43
:070A9B007510007511003217
:1008B000020930E493A3F8E493A34003F68001F225
:1008C00008DFF48029E493A3F85407240CC8C33349
:1008D000C4540F4420C8834004F456800146F6DF18
:1008E000E4800B0102040810204080900AA2E47EFC
:1008F000019360BCA3FF543F30E509541FFEE4930D
:10090000A360010ECF54C025E060A840B8E493A3D3
:10091000FAE493A3F8E493A3C8C582C8CAC583CAFE
:10092000F0A3C8C582C8CAC583CADFE9DEE780BEB6
:010AA600004F
:10080000BB010689828A83E0225002E722BBFE02F6
:09081000E32289828A83E4932229
:10081900C2D5EC30E709B2D5E4C39DFDE49CFCEEFA
:1008290030E715B2D5E4C39FFFE49EFE12084FC31B
:10083900E49DFDE49CFC800312084F30D507C3E416
:060849009FFFE49EFE2269
:10084F00BC000BBE0029EF8DF084FFADF022E4CC8D
:10085F00F875F008EF2FFFEE33FEEC33FCEE9DEC56
:10086F00984005FCEE9DFE0FD5F0E9E4CEFD22ED9C
:10087F00F8F5F0EE8420D21CFEADF075F008EF2FE6
:10088F00FFED33FD4007985006D5F0F222C398FDD7
:05089F000FD5F0EA2274
:00000001FF
